:100000000C9434000C943E000C943E000C943E0082
:100010000C943E000C943E000C943E000C943E0068
:100020000C943E000C943E000C943E000C943E0058
:100030000C943E000C943E000C943E000C943E0048
:100040000C943E000C943E000C943E000C943E0038
:100050000C943E000C943E000C943E000C943E0028
:100060000C943E000C943E0011241FBECFEFD8E04C
:10007000DEBFCDBF0E9440000C9452000C940000E3
:10008000569A5198599A499902C05E9A01C05E9851
:1000900022E682EF90E2215080409040E1F700C0DC
:0800A00000C0F1CFF894FFCF7E
:00000001FF
